:100000000C9434000C943E000C943E000C943E0082
:100010000C943E000C943E000C943E000C943E0068
:100020000C943E000C943E000C943E000C943E0058
:100030000C943E000C943E000C943E000C943E0048
:100040000C943E000C943E000C943E000C943E0038
:100050000C943E000C943E000C943E000C943E0028
:100060000C943E000C943E0011241FBECFEFD8E04C
:10007000DEBFCDBF0E9440000C9476000C940000BF
:1000800084B1886384B9579A85B1877C85B92D9AE4
:100090004F9BFDCF2FEF8BE792E92150804090409E
:1000A000E1F700C000002D982C9A2FEF83ED90E32C
:1000B000215080409040E1F700C000002C982B9A1E
:1000C0002FEF83E294EF215080409040E1F700C091
:1000D00000002B982C9A2FEF83ED90E32150804065
:1000E0009040E1F700C000002C98D1CFF894FFCFEA
:00000001FF
